{
  "_format": "hh-sol-artifact-1",
  "contractName": "InsuranceContract",
  "sourceName": "contracts/InsuranceContract.sol",
  "abi": [
    {
      "inputs": [],
      "stateMutability": "nonpayable",
      "type": "constructor"
    },
    {
      "anonymous": false,
      "inputs": [
        {
          "indexed": false,
          "internalType": "uint256",
          "name": "claimId",
          "type": "uint256"
        },
        {
          "indexed": false,
          "internalType": "uint256",
          "name": "policyId",
          "type": "uint256"
        }
      ],
      "name": "ClaimApproved",
      "type": "event"
    },
    {
      "anonymous": false,
      "inputs": [
        {
          "indexed": false,
          "internalType": "uint256",
          "name": "claimId",
          "type": "uint256"
        },
        {
          "indexed": false,
          "internalType": "uint256",
          "name": "policyId",
          "type": "uint256"
        },
        {
          "indexed": true,
          "internalType": "address",
          "name": "policyHolder",
          "type": "address"
        },
        {
          "indexed": false,
          "internalType": "uint256",
          "name": "amount",
          "type": "uint256"
        }
      ],
      "name": "ClaimPaid",
      "type": "event"
    },
    {
      "anonymous": false,
      "inputs": [
        {
          "indexed": false,
          "internalType": "uint256",
          "name": "claimId",
          "type": "uint256"
        },
        {
          "indexed": false,
          "internalType": "uint256",
          "name": "policyId",
          "type": "uint256"
        },
        {
          "indexed": false,
          "internalType": "uint256",
          "name": "claimAmount",
          "type": "uint256"
        },
        {
          "indexed": false,
          "internalType": "string",
          "name": "reason",
          "type": "string"
        }
      ],
      "name": "ClaimSubmitted",
      "type": "event"
    },
    {
      "anonymous": false,
      "inputs": [
        {
          "indexed": false,
          "internalType": "uint256",
          "name": "policyId",
          "type": "uint256"
        },
        {
          "indexed": true,
          "internalType": "address",
          "name": "policyHolder",
          "type": "address"
        },
        {
          "indexed": false,
          "internalType": "uint256",
          "name": "premium",
          "type": "uint256"
        },
        {
          "indexed": false,
          "internalType": "uint256",
          "name": "coverageAmount",
          "type": "uint256"
        },
        {
          "indexed": false,
          "internalType": "uint256",
          "name": "duration",
          "type": "uint256"
        }
      ],
      "name": "PolicyIssued",
      "type": "event"
    },
    {
      "anonymous": false,
      "inputs": [
        {
          "indexed": false,
          "internalType": "uint256",
          "name": "policyId",
          "type": "uint256"
        },
        {
          "indexed": true,
          "internalType": "address",
          "name": "policyHolder",
          "type": "address"
        },
        {
          "indexed": false,
          "internalType": "uint256",
          "name": "amount",
          "type": "uint256"
        }
      ],
      "name": "PremiumPaid",
      "type": "event"
    },
    {
      "inputs": [
        {
          "internalType": "uint256",
          "name": "_claimId",
          "type": "uint256"
        }
      ],
      "name": "approveClaim",
      "outputs": [],
      "stateMutability": "nonpayable",
      "type": "function"
    },
    {
      "inputs": [],
      "name": "claimCounter",
      "outputs": [
        {
          "internalType": "uint256",
          "name": "",
          "type": "uint256"
        }
      ],
      "stateMutability": "view",
      "type": "function"
    },
    {
      "inputs": [
        {
          "internalType": "uint256",
          "name": "",
          "type": "uint256"
        }
      ],
      "name": "claims",
      "outputs": [
        {
          "internalType": "uint256",
          "name": "policyId",
          "type": "uint256"
        },
        {
          "internalType": "uint256",
          "name": "claimAmount",
          "type": "uint256"
        },
        {
          "internalType": "string",
          "name": "reason",
          "type": "string"
        },
        {
          "internalType": "bool",
          "name": "isApproved",
          "type": "bool"
        },
        {
          "internalType": "bool",
          "name": "isPaid",
          "type": "bool"
        }
      ],
      "stateMutability": "view",
      "type": "function"
    },
    {
      "inputs": [],
      "name": "fundContract",
      "outputs": [],
      "stateMutability": "payable",
      "type": "function"
    },
    {
      "inputs": [],
      "name": "getContractBalance",
      "outputs": [
        {
          "internalType": "uint256",
          "name": "",
          "type": "uint256"
        }
      ],
      "stateMutability": "view",
      "type": "function"
    },
    {
      "inputs": [],
      "name": "insurer",
      "outputs": [
        {
          "internalType": "address",
          "name": "",
          "type": "address"
        }
      ],
      "stateMutability": "view",
      "type": "function"
    },
    {
      "inputs": [
        {
          "internalType": "address",
          "name": "_policyHolder",
          "type": "address"
        },
        {
          "internalType": "uint256",
          "name": "_premium",
          "type": "uint256"
        },
        {
          "internalType": "uint256",
          "name": "_coverageAmount",
          "type": "uint256"
        },
        {
          "internalType": "uint256",
          "name": "_durationInDays",
          "type": "uint256"
        }
      ],
      "name": "issuePolicy",
      "outputs": [],
      "stateMutability": "nonpayable",
      "type": "function"
    },
    {
      "inputs": [
        {
          "internalType": "uint256",
          "name": "_claimId",
          "type": "uint256"
        }
      ],
      "name": "payClaim",
      "outputs": [],
      "stateMutability": "nonpayable",
      "type": "function"
    },
    {
      "inputs": [
        {
          "internalType": "uint256",
          "name": "_policyId",
          "type": "uint256"
        }
      ],
      "name": "payPremium",
      "outputs": [],
      "stateMutability": "payable",
      "type": "function"
    },
    {
      "inputs": [
        {
          "internalType": "uint256",
          "name": "",
          "type": "uint256"
        }
      ],
      "name": "policies",
      "outputs": [
        {
          "internalType": "address",
          "name": "policyHolder",
          "type": "address"
        },
        {
          "internalType": "uint256",
          "name": "premium",
          "type": "uint256"
        },
        {
          "internalType": "uint256",
          "name": "coverageAmount",
          "type": "uint256"
        },
        {
          "internalType": "uint256",
          "name": "startTime",
          "type": "uint256"
        },
        {
          "internalType": "uint256",
          "name": "endTime",
          "type": "uint256"
        },
        {
          "internalType": "bool",
          "name": "isActive",
          "type": "bool"
        },
        {
          "internalType": "bool",
          "name": "isClaimed",
          "type": "bool"
        }
      ],
      "stateMutability": "view",
      "type": "function"
    },
    {
      "inputs": [],
      "name": "policyCounter",
      "outputs": [
        {
          "internalType": "uint256",
          "name": "",
          "type": "uint256"
        }
      ],
      "stateMutability": "view",
      "type": "function"
    },
    {
      "inputs": [
        {
          "internalType": "uint256",
          "name": "_policyId",
          "type": "uint256"
        },
        {
          "internalType": "uint256",
          "name": "_claimAmount",
          "type": "uint256"
        },
        {
          "internalType": "string",
          "name": "_reason",
          "type": "string"
        }
      ],
      "name": "submitClaim",
      "outputs": [],
      "stateMutability": "nonpayable",
      "type": "function"
    }
  ],
  "bytecode": "0x608060405260006003556000600455348015601957600080fd5b50336000806101000a81548173ffffffffffffffffffffffffffffffffffffffff021916908373ffffffffffffffffffffffffffffffffffffffff160217905550611fc3806100696000396000f3fe6080604052600436106100a75760003560e01c8063a888c2cd11610064578063a888c2cd14610199578063bd097e21146101da578063d3e89483146101e4578063d52c1bea14610227578063d70356cc14610252578063dbc837c51461027b576100a7565b806306964de7146100ac5780634364b26e146100d557806346e30135146100f15780634efa8f171461011a5780636f9fb98a14610145578063a0b08cfa14610170575b600080fd5b3480156100b857600080fd5b506100d360048036038101906100ce91906111cb565b6102a6565b005b6100ef60048036038101906100ea919061123a565b610545565b005b3480156100fd57600080fd5b506101186004803603810190610113919061123a565b610720565b005b34801561012657600080fd5b5061012f610875565b60405161013c9190611276565b60405180910390f35b34801561015157600080fd5b5061015a61087b565b6040516101679190611276565b60405180910390f35b34801561017c57600080fd5b50610197600480360381019061019291906112ef565b610883565b005b3480156101a557600080fd5b506101c060048036038101906101bb919061123a565b610ab4565b6040516101d19594939291906113f0565b60405180910390f35b6101e2610b8c565b005b3480156101f057600080fd5b5061020b6004803603810190610206919061123a565b610c1c565b60405161021e9796959493929190611459565b60405180910390f35b34801561023357600080fd5b5061023c610c98565b6040516102499190611276565b60405180910390f35b34801561025e57600080fd5b506102796004803603810190610274919061123a565b610c9e565b005b34801561028757600080fd5b50610290611017565b60405161029d91906114c8565b60405180910390f35b60006001600085815260200190815260200160002090503373ffffffffffffffffffffffffffffffffffffffff168160000160009054906101000a900473ffffffffffffffffffffffffffffffffffffffff1673ffffffffffffffffffffffffffffffffffffffff161461034f576040517f08c379a000000000000000000000000000000000000000000000000000000000815260040161034690611555565b60405180910390fd5b8060050160009054906101000a900460ff166103a0576040517f08c379a0000000000000000000000000000000000000000000000000000000008152600401610397906115c1565b60405180910390fd5b80600401544211156103e7576040517f08c379a00000000000000000000000000000000000000000000000000000000081526004016103de9061162d565b60405180910390fd5b8060050160019054906101000a900460ff1615610439576040517f08c379a000000000000000000000000000000000000000000000000000000000815260040161043090611699565b60405180910390fd5b6004600081548092919061044c906116e8565b91905055506040518060a0016040528085815260200184815260200183815260200160001515815260200160001515815250600260006004548152602001908152602001600020600082015181600001556020820151816001015560408201518160020190816104bc919061193c565b5060608201518160030160006101000a81548160ff02191690831515021790555060808201518160030160016101000a81548160ff0219169083151502179055509050507f2f508f2a8f31434e36d374a46bebe7cd3a5d706b8c1553d99ea4734a2ff207186004548585856040516105379493929190611a0e565b60405180910390a150505050565b60006001600083815260200190815260200160002090503373ffffffffffffffffffffffffffffffffffffffff168160000160009054906101000a900473ffffffffffffffffffffffffffffffffffffffff1673ffffffffffffffffffffffffffffffffffffffff16146105ee576040517f08c379a00000000000000000000000000000000000000000000000000000000081526004016105e590611acc565b60405180910390fd5b8060050160009054906101000a900460ff1661063f576040517f08c379a0000000000000000000000000000000000000000000000000000000008152600401610636906115c1565b60405180910390fd5b8060040154421115610686576040517f08c379a000000000000000000000000000000000000000000000000000000000815260040161067d90611b38565b60405180910390fd5b806001015434146106cc576040517f08c379a00000000000000000000000000000000000000000000000000000000081526004016106c390611ba4565b60405180910390fd5b3373ffffffffffffffffffffffffffffffffffffffff167ffbf1458fbbddabb878de144276216e8ccda619cbac2d598e6ee37ff72173afb18334604051610714929190611bc4565b60405180910390a25050565b60008054906101000a900473ffffffffffffffffffffffffffffffffffffffff1673ffffffffffffffffffffffffffffffffffffffff163373ffffffffffffffffffffffffffffffffffffffff16146107ae576040517f08c379a00000000000000000000000000000000000000000000000000000000081526004016107a590611c5f565b60405180910390fd5b60006002600083815260200190815260200160002090508060030160009054906101000a900460ff1615610817576040517f08c379a000000000000000000000000000000000000000000000000000000000815260040161080e90611ccb565b60405180910390fd5b60018160030160006101000a81548160ff0219169083151502179055507f638d892b8630b775fea5d7a52b209e8bfa1d90c32b57cd37208ac84d4bcd6dcb828260000154604051610869929190611bc4565b60405180910390a15050565b60045481565b600047905090565b60008054906101000a900473ffffffffffffffffffffffffffffffffffffffff1673ffffffffffffffffffffffffffffffffffffffff163373ffffffffffffffffffffffffffffffffffffffff1614610911576040517f08c379a000000000000000000000000000000000000000000000000000000000815260040161090890611c5f565b60405180910390fd5b60036000815480929190610924906116e8565b91905055506040518060e001604052808573ffffffffffffffffffffffffffffffffffffffff16815260200184815260200183815260200142815260200162015180836109719190611ceb565b4261097c9190611d2d565b81526020016001151581526020016000151581525060016000600354815260200190815260200160002060008201518160000160006101000a81548173ffffffffffffffffffffffffffffffffffffffff021916908373ffffffffffffffffffffffffffffffffffffffff1602179055506020820151816001015560408201518160020155606082015181600301556080820151816004015560a08201518160050160006101000a81548160ff02191690831515021790555060c08201518160050160016101000a81548160ff0219169083151502179055509050508373ffffffffffffffffffffffffffffffffffffffff167fd93ca75dcb6254718485f83c72225dcd37a74fd9a134ceed01946cf2e920b83d600354858585604051610aa69493929190611d61565b60405180910390a250505050565b6002602052806000526040600020600091509050806000015490806001015490806002018054610ae39061175f565b80601f0160208091040260200160405190810160405280929190818152602001828054610b0f9061175f565b8015610b5c5780601f10610b3157610100808354040283529160200191610b5c565b820191906000526020600020905b815481529060010190602001808311610b3f57829003601f168201915b5050505050908060030160009054906101000a900460ff16908060030160019054906101000a900460ff16905085565b60008054906101000a900473ffffffffffffffffffffffffffffffffffffffff1673ffffffffffffffffffffffffffffffffffffffff163373ffffffffffffffffffffffffffffffffffffffff1614610c1a576040517f08c379a0000000000000000000000000000000000000000000000000000000008152600401610c1190611c5f565b60405180910390fd5b565b60016020528060005260406000206000915090508060000160009054906101000a900473ffffffffffffffffffffffffffffffffffffffff16908060010154908060020154908060030154908060040154908060050160009054906101000a900460ff16908060050160019054906101000a900460ff16905087565b60035481565b60008054906101000a900473ffffffffffffffffffffffffffffffffffffffff1673ffffffffffffffffffffffffffffffffffffffff163373ffffffffffffffffffffffffffffffffffffffff1614610d2c576040517f08c379a0000000000000000000000000000000000000000000000000000000008152600401610d2390611c5f565b60405180910390fd5b60006002600083815260200190815260200160002090506000600160008360000154815260200190815260200160002090508160030160009054906101000a900460ff16610daf576040517f08c379a0000000000000000000000000000000000000000000000000000000008152600401610da690611df2565b60405180910390fd5b8160030160019054906101000a900460ff1615610e01576040517f08c379a0000000000000000000000000000000000000000000000000000000008152600401610df890611e5e565b60405180910390fd5b8160010154471015610e48576040517f08c379a0000000000000000000000000000000000000000000000000000000008152600401610e3f90611eca565b60405180910390fd5b8060050160009054906101000a900460ff16610e99576040517f08c379a0000000000000000000000000000000000000000000000000000000008152600401610e90906115c1565b60405180910390fd5b8060050160019054906101000a900460ff1615610eeb576040517f08c379a0000000000000000000000000000000000000000000000000000000008152600401610ee290611f36565b60405180910390fd5b60018260030160016101000a81548160ff02191690831515021790555060018160050160016101000a81548160ff0219169083151502179055508060000160009054906101000a900473ffffffffffffffffffffffffffffffffffffffff1673ffffffffffffffffffffffffffffffffffffffff166108fc83600101549081150290604051600060405180830381858888f19350505050158015610f93573d6000803e3d6000fd5b508060000160009054906101000a900473ffffffffffffffffffffffffffffffffffffffff1673ffffffffffffffffffffffffffffffffffffffff167fe126a82946b3a6f5969d735bc2da134b26667bbdb0818d872a70cd8aee56b0fc848460000154856001015460405161100a93929190611f56565b60405180910390a2505050565b60008054906101000a900473ffffffffffffffffffffffffffffffffffffffff1681565b6000604051905090565b600080fd5b600080fd5b6000819050919050565b6110628161104f565b811461106d57600080fd5b50565b60008135905061107f81611059565b92915050565b600080fd5b600080fd5b6000601f19601f8301169050919050565b7f4e487b7100000000000000000000000000000000000000000000000000000000600052604160045260246000fd5b6110d88261108f565b810181811067ffffffffffffffff821117156110f7576110f66110a0565b5b80604052505050565b600061110a61103b565b905061111682826110cf565b919050565b600067ffffffffffffffff821115611136576111356110a0565b5b61113f8261108f565b9050602081019050919050565b82818337600083830152505050565b600061116e6111698461111b565b611100565b90508281526020810184848401111561118a5761118961108a565b5b61119584828561114c565b509392505050565b600082601f8301126111b2576111b1611085565b5b81356111c284826020860161115b565b91505092915050565b6000806000606084860312156111e4576111e3611045565b5b60006111f286828701611070565b935050602061120386828701611070565b925050604084013567ffffffffffffffff8111156112245761122361104a565b5b6112308682870161119d565b9150509250925092565b6000602082840312156112505761124f611045565b5b600061125e84828501611070565b91505092915050565b6112708161104f565b82525050565b600060208201905061128b6000830184611267565b92915050565b600073ffffffffffffffffffffffffffffffffffffffff82169050919050565b60006112bc82611291565b9050919050565b6112cc816112b1565b81146112d757600080fd5b50565b6000813590506112e9816112c3565b92915050565b6000806000806080858703121561130957611308611045565b5b6000611317878288016112da565b945050602061132887828801611070565b935050604061133987828801611070565b925050606061134a87828801611070565b91505092959194509250565b600081519050919050565b600082825260208201905092915050565b60005b83811015611390578082015181840152602081019050611375565b60008484015250505050565b60006113a782611356565b6113b18185611361565b93506113c1818560208601611372565b6113ca8161108f565b840191505092915050565b60008115159050919050565b6113ea816113d5565b82525050565b600060a0820190506114056000830188611267565b6114126020830187611267565b8181036040830152611424818661139c565b905061143360608301856113e1565b61144060808301846113e1565b9695505050505050565b611453816112b1565b82525050565b600060e08201905061146e600083018a61144a565b61147b6020830189611267565b6114886040830188611267565b6114956060830187611267565b6114a26080830186611267565b6114af60a08301856113e1565b6114bc60c08301846113e1565b98975050505050505050565b60006020820190506114dd600083018461144a565b92915050565b7f4f6e6c7920706f6c696379686f6c6465722063616e207375626d697420636c6160008201527f696d000000000000000000000000000000000000000000000000000000000000602082015250565b600061153f602283611361565b915061154a826114e3565b604082019050919050565b6000602082019050818103600083015261156e81611532565b9050919050565b7f506f6c696379206973206e6f7420616374697665000000000000000000000000600082015250565b60006115ab601483611361565b91506115b682611575565b602082019050919050565b600060208201905081810360008301526115da8161159e565b9050919050565b7f506f6c6963792065787069726564000000000000000000000000000000000000600082015250565b6000611617600e83611361565b9150611622826115e1565b602082019050919050565b600060208201905081810360008301526116468161160a565b9050919050565b7f416c726561647920636c61696d656420666f72207468697320706f6c69637900600082015250565b6000611683601f83611361565b915061168e8261164d565b602082019050919050565b600060208201905081810360008301526116b281611676565b9050919050565b7f4e487b7100000000000000000000000000000000000000000000000000000000600052601160045260246000fd5b60006116f38261104f565b91507fffffffffffffffffffffffffffffffffffffffffffffffffffffffffffffffff8203611725576117246116b9565b5b600182019050919050565b7f4e487b7100000000000000000000000000000000000000000000000000000000600052602260045260246000fd5b6000600282049050600182168061177757607f821691505b60208210810361178a57611789611730565b5b50919050565b60008190508160005260206000209050919050565b60006020601f8301049050919050565b600082821b905092915050565b6000600883026117f27fffffffffffffffffffffffffffffffffffffffffffffffffffffffffffffffff826117b5565b6117fc86836117b5565b95508019841693508086168417925050509392505050565b6000819050919050565b600061183961183461182f8461104f565b611814565b61104f565b9050919050565b6000819050919050565b6118538361181e565b61186761185f82611840565b8484546117c2565b825550505050565b600090565b61187c61186f565b61188781848461184a565b505050565b5b818110156118ab576118a0600082611874565b60018101905061188d565b5050565b601f8211156118f0576118c181611790565b6118ca846117a5565b810160208510156118d9578190505b6118ed6118e5856117a5565b83018261188c565b50505b505050565b600082821c905092915050565b6000611913600019846008026118f5565b1980831691505092915050565b600061192c8383611902565b9150826002028217905092915050565b61194582611356565b67ffffffffffffffff81111561195e5761195d6110a0565b5b611968825461175f565b6119738282856118af565b600060209050601f8311600181146119a65760008415611994578287015190505b61199e8582611920565b865550611a06565b601f1984166119b486611790565b60005b828110156119dc578489015182556001820191506020850194506020810190506119b7565b868310156119f957848901516119f5601f891682611902565b8355505b6001600288020188555050505b505050505050565b6000608082019050611a236000830187611267565b611a306020830186611267565b611a3d6040830185611267565b8181036060830152611a4f818461139c565b905095945050505050565b7f4f6e6c7920706f6c696379686f6c6465722063616e20706179207072656d697560008201527f6d00000000000000000000000000000000000000000000000000000000000000602082015250565b6000611ab6602183611361565b9150611ac182611a5a565b604082019050919050565b60006020820190508181036000830152611ae581611aa9565b9050919050565b7f506f6c6963792068617320657870697265640000000000000000000000000000600082015250565b6000611b22601283611361565b9150611b2d82611aec565b602082019050919050565b60006020820190508181036000830152611b5181611b15565b9050919050565b7f496e636f7272656374207072656d69756d20616d6f756e740000000000000000600082015250565b6000611b8e601883611361565b9150611b9982611b58565b602082019050919050565b60006020820190508181036000830152611bbd81611b81565b9050919050565b6000604082019050611bd96000830185611267565b611be66020830184611267565b9392505050565b7f4f6e6c7920696e73757265722063616e20706572666f726d207468697320616360008201527f74696f6e00000000000000000000000000000000000000000000000000000000602082015250565b6000611c49602483611361565b9150611c5482611bed565b604082019050919050565b60006020820190508181036000830152611c7881611c3c565b9050919050565b7f436c61696d20616c726561647920617070726f76656400000000000000000000600082015250565b6000611cb5601683611361565b9150611cc082611c7f565b602082019050919050565b60006020820190508181036000830152611ce481611ca8565b9050919050565b6000611cf68261104f565b9150611d018361104f565b9250828202611d0f8161104f565b91508282048414831517611d2657611d256116b9565b5b5092915050565b6000611d388261104f565b9150611d438361104f565b9250828201905080821115611d5b57611d5a6116b9565b5b92915050565b6000608082019050611d766000830187611267565b611d836020830186611267565b611d906040830185611267565b611d9d6060830184611267565b95945050505050565b7f436c61696d206e6f7420617070726f7665640000000000000000000000000000600082015250565b6000611ddc601283611361565b9150611de782611da6565b602082019050919050565b60006020820190508181036000830152611e0b81611dcf565b9050919050565b7f436c61696d20616c726561647920706169640000000000000000000000000000600082015250565b6000611e48601283611361565b9150611e5382611e12565b602082019050919050565b60006020820190508181036000830152611e7781611e3b565b9050919050565b7f496e73756666696369656e7420636f6e74726163742062616c616e6365000000600082015250565b6000611eb4601d83611361565b9150611ebf82611e7e565b602082019050919050565b60006020820190508181036000830152611ee381611ea7565b9050919050565b7f506f6c69637920636c61696d20616c7265616479207061696400000000000000600082015250565b6000611f20601983611361565b9150611f2b82611eea565b602082019050919050565b60006020820190508181036000830152611f4f81611f13565b9050919050565b6000606082019050611f6b6000830186611267565b611f786020830185611267565b611f856040830184611267565b94935050505056fea264697066735822122006a4572f8466c48056a2fb4de3621d40f16a484eb9e2eeef38858c336f20d0a864736f6c634300081c0033",
  "linkReferences": {},
  "deployedLinkReferences": {}
}