{
  "_format": "hh-sol-artifact-1",
  "contractName": "InsuranceContract",
  "sourceName": "contracts/InsuranceContract.sol",
  "abi": [
    {
      "inputs": [],
      "stateMutability": "nonpayable",
      "type": "constructor"
    },
    {
      "anonymous": false,
      "inputs": [
        {
          "indexed": false,
          "internalType": "uint256",
          "name": "claimId",
          "type": "uint256"
        },
        {
          "indexed": false,
          "internalType": "uint256",
          "name": "policyId",
          "type": "uint256"
        }
      ],
      "name": "ClaimApproved",
      "type": "event"
    },
    {
      "anonymous": false,
      "inputs": [
        {
          "indexed": false,
          "internalType": "uint256",
          "name": "claimId",
          "type": "uint256"
        },
        {
          "indexed": false,
          "internalType": "uint256",
          "name": "policyId",
          "type": "uint256"
        },
        {
          "indexed": true,
          "internalType": "address",
          "name": "policyHolder",
          "type": "address"
        },
        {
          "indexed": false,
          "internalType": "uint256",
          "name": "amount",
          "type": "uint256"
        }
      ],
      "name": "ClaimPaid",
      "type": "event"
    },
    {
      "anonymous": false,
      "inputs": [
        {
          "indexed": false,
          "internalType": "uint256",
          "name": "claimId",
          "type": "uint256"
        },
        {
          "indexed": false,
          "internalType": "uint256",
          "name": "policyId",
          "type": "uint256"
        },
        {
          "indexed": false,
          "internalType": "uint256",
          "name": "claimAmount",
          "type": "uint256"
        },
        {
          "indexed": false,
          "internalType": "string",
          "name": "reason",
          "type": "string"
        }
      ],
      "name": "ClaimSubmitted",
      "type": "event"
    },
    {
      "anonymous": false,
      "inputs": [
        {
          "indexed": false,
          "internalType": "uint256",
          "name": "policyId",
          "type": "uint256"
        },
        {
          "indexed": true,
          "internalType": "address",
          "name": "policyHolder",
          "type": "address"
        },
        {
          "indexed": false,
          "internalType": "uint256",
          "name": "premium",
          "type": "uint256"
        },
        {
          "indexed": false,
          "internalType": "uint256",
          "name": "coverageAmount",
          "type": "uint256"
        },
        {
          "indexed": false,
          "internalType": "uint256",
          "name": "duration",
          "type": "uint256"
        }
      ],
      "name": "PolicyIssued",
      "type": "event"
    },
    {
      "anonymous": false,
      "inputs": [
        {
          "indexed": false,
          "internalType": "uint256",
          "name": "policyId",
          "type": "uint256"
        },
        {
          "indexed": true,
          "internalType": "address",
          "name": "policyHolder",
          "type": "address"
        },
        {
          "indexed": false,
          "internalType": "uint256",
          "name": "amount",
          "type": "uint256"
        }
      ],
      "name": "PremiumPaid",
      "type": "event"
    },
    {
      "inputs": [
        {
          "internalType": "uint256",
          "name": "_claimId",
          "type": "uint256"
        }
      ],
      "name": "approveClaim",
      "outputs": [],
      "stateMutability": "nonpayable",
      "type": "function"
    },
    {
      "inputs": [],
      "name": "claimCounter",
      "outputs": [
        {
          "internalType": "uint256",
          "name": "",
          "type": "uint256"
        }
      ],
      "stateMutability": "view",
      "type": "function"
    },
    {
      "inputs": [
        {
          "internalType": "uint256",
          "name": "",
          "type": "uint256"
        }
      ],
      "name": "claims",
      "outputs": [
        {
          "internalType": "uint256",
          "name": "policyId",
          "type": "uint256"
        },
        {
          "internalType": "uint256",
          "name": "claimAmount",
          "type": "uint256"
        },
        {
          "internalType": "string",
          "name": "reason",
          "type": "string"
        },
        {
          "internalType": "bool",
          "name": "isApproved",
          "type": "bool"
        },
        {
          "internalType": "bool",
          "name": "isPaid",
          "type": "bool"
        }
      ],
      "stateMutability": "view",
      "type": "function"
    },
    {
      "inputs": [],
      "name": "fundContract",
      "outputs": [],
      "stateMutability": "payable",
      "type": "function"
    },
    {
      "inputs": [],
      "name": "getContractBalance",
      "outputs": [
        {
          "internalType": "uint256",
          "name": "",
          "type": "uint256"
        }
      ],
      "stateMutability": "view",
      "type": "function"
    },
    {
      "inputs": [],
      "name": "insurer",
      "outputs": [
        {
          "internalType": "address",
          "name": "",
          "type": "address"
        }
      ],
      "stateMutability": "view",
      "type": "function"
    },
    {
      "inputs": [
        {
          "internalType": "address",
          "name": "_policyHolder",
          "type": "address"
        },
        {
          "internalType": "uint256",
          "name": "_premium",
          "type": "uint256"
        },
        {
          "internalType": "uint256",
          "name": "_coverageAmount",
          "type": "uint256"
        },
        {
          "internalType": "uint256",
          "name": "_durationInDays",
          "type": "uint256"
        }
      ],
      "name": "issuePolicy",
      "outputs": [],
      "stateMutability": "nonpayable",
      "type": "function"
    },
    {
      "inputs": [
        {
          "internalType": "uint256",
          "name": "_claimId",
          "type": "uint256"
        }
      ],
      "name": "payClaim",
      "outputs": [],
      "stateMutability": "nonpayable",
      "type": "function"
    },
    {
      "inputs": [
        {
          "internalType": "uint256",
          "name": "_policyId",
          "type": "uint256"
        }
      ],
      "name": "payPremium",
      "outputs": [],
      "stateMutability": "payable",
      "type": "function"
    },
    {
      "inputs": [
        {
          "internalType": "uint256",
          "name": "",
          "type": "uint256"
        }
      ],
      "name": "policies",
      "outputs": [
        {
          "internalType": "address",
          "name": "policyHolder",
          "type": "address"
        },
        {
          "internalType": "uint256",
          "name": "premium",
          "type": "uint256"
        },
        {
          "internalType": "uint256",
          "name": "coverageAmount",
          "type": "uint256"
        },
        {
          "internalType": "uint256",
          "name": "startTime",
          "type": "uint256"
        },
        {
          "internalType": "uint256",
          "name": "endTime",
          "type": "uint256"
        },
        {
          "internalType": "bool",
          "name": "isActive",
          "type": "bool"
        },
        {
          "internalType": "bool",
          "name": "isClaimed",
          "type": "bool"
        }
      ],
      "stateMutability": "view",
      "type": "function"
    },
    {
      "inputs": [],
      "name": "policyCounter",
      "outputs": [
        {
          "internalType": "uint256",
          "name": "",
          "type": "uint256"
        }
      ],
      "stateMutability": "view",
      "type": "function"
    },
    {
      "inputs": [
        {
          "internalType": "uint256",
          "name": "",
          "type": "uint256"
        }
      ],
      "name": "policyIds",
      "outputs": [
        {
          "internalType": "uint256",
          "name": "",
          "type": "uint256"
        }
      ],
      "stateMutability": "view",
      "type": "function"
    },
    {
      "inputs": [
        {
          "internalType": "uint256",
          "name": "_policyId",
          "type": "uint256"
        },
        {
          "internalType": "uint256",
          "name": "_claimAmount",
          "type": "uint256"
        },
        {
          "internalType": "string",
          "name": "_reason",
          "type": "string"
        }
      ],
      "name": "submitClaim",
      "outputs": [],
      "stateMutability": "nonpayable",
      "type": "function"
    }
  ],
  "bytecode": "0x60806040526000600455600060055534801561001a57600080fd5b50336000806101000a81548173ffffffffffffffffffffffffffffffffffffffff021916908373ffffffffffffffffffffffffffffffffffffffff16021790555061206a8061006a6000396000f3fe6080604052600436106100c25760003560e01c8063a0b08cfa1161007f578063d3e8948311610059578063d3e894831461023c578063d52c1bea1461027f578063d70356cc146102aa578063dbc837c5146102d3576100c2565b8063a0b08cfa146101c8578063a888c2cd146101f1578063bd097e2114610232576100c2565b806306964de7146100c75780632f500f6c146100f05780634364b26e1461012d57806346e30135146101495780634efa8f17146101725780636f9fb98a1461019d575b600080fd5b3480156100d357600080fd5b506100ee60048036038101906100e99190611272565b6102fe565b005b3480156100fc57600080fd5b50610117600480360381019061011291906112e1565b61059d565b604051610124919061131d565b60405180910390f35b610147600480360381019061014291906112e1565b6105c1565b005b34801561015557600080fd5b50610170600480360381019061016b91906112e1565b61079c565b005b34801561017e57600080fd5b506101876108f1565b604051610194919061131d565b60405180910390f35b3480156101a957600080fd5b506101b26108f7565b6040516101bf919061131d565b60405180910390f35b3480156101d457600080fd5b506101ef60048036038101906101ea9190611396565b6108ff565b005b3480156101fd57600080fd5b50610218600480360381019061021391906112e1565b610b5b565b604051610229959493929190611497565b60405180910390f35b61023a610c33565b005b34801561024857600080fd5b50610263600480360381019061025e91906112e1565b610cc3565b6040516102769796959493929190611500565b60405180910390f35b34801561028b57600080fd5b50610294610d3f565b6040516102a1919061131d565b60405180910390f35b3480156102b657600080fd5b506102d160048036038101906102cc91906112e1565b610d45565b005b3480156102df57600080fd5b506102e86110be565b6040516102f5919061156f565b60405180910390f35b60006002600085815260200190815260200160002090503373ffffffffffffffffffffffffffffffffffffffff168160000160009054906101000a900473ffffffffffffffffffffffffffffffffffffffff1673ffffffffffffffffffffffffffffffffffffffff16146103a7576040517f08c379a000000000000000000000000000000000000000000000000000000000815260040161039e906115fc565b60405180910390fd5b8060050160009054906101000a900460ff166103f8576040517f08c379a00000000000000000000000000000000000000000000000000000000081526004016103ef90611668565b60405180910390fd5b806004015442111561043f576040517f08c379a0000000000000000000000000000000000000000000000000000000008152600401610436906116d4565b60405180910390fd5b8060050160019054906101000a900460ff1615610491576040517f08c379a000000000000000000000000000000000000000000000000000000000815260040161048890611740565b60405180910390fd5b600560008154809291906104a49061178f565b91905055506040518060a00160405280858152602001848152602001838152602001600015158152602001600015158152506003600060055481526020019081526020016000206000820151816000015560208201518160010155604082015181600201908161051491906119e3565b5060608201518160030160006101000a81548160ff02191690831515021790555060808201518160030160016101000a81548160ff0219169083151502179055509050507f2f508f2a8f31434e36d374a46bebe7cd3a5d706b8c1553d99ea4734a2ff2071860055485858560405161058f9493929190611ab5565b60405180910390a150505050565b600181815481106105ad57600080fd5b906000526020600020016000915090505481565b60006002600083815260200190815260200160002090503373ffffffffffffffffffffffffffffffffffffffff168160000160009054906101000a900473ffffffffffffffffffffffffffffffffffffffff1673ffffffffffffffffffffffffffffffffffffffff161461066a576040517f08c379a000000000000000000000000000000000000000000000000000000000815260040161066190611b73565b60405180910390fd5b8060050160009054906101000a900460ff166106bb576040517f08c379a00000000000000000000000000000000000000000000000000000000081526004016106b290611668565b60405180910390fd5b8060040154421115610702576040517f08c379a00000000000000000000000000000000000000000000000000000000081526004016106f990611bdf565b60405180910390fd5b80600101543414610748576040517f08c379a000000000000000000000000000000000000000000000000000000000815260040161073f90611c4b565b60405180910390fd5b3373ffffffffffffffffffffffffffffffffffffffff167ffbf1458fbbddabb878de144276216e8ccda619cbac2d598e6ee37ff72173afb18334604051610790929190611c6b565b60405180910390a25050565b60008054906101000a900473ffffffffffffffffffffffffffffffffffffffff1673ffffffffffffffffffffffffffffffffffffffff163373ffffffffffffffffffffffffffffffffffffffff161461082a576040517f08c379a000000000000000000000000000000000000000000000000000000000815260040161082190611d06565b60405180910390fd5b60006003600083815260200190815260200160002090508060030160009054906101000a900460ff1615610893576040517f08c379a000000000000000000000000000000000000000000000000000000000815260040161088a90611d72565b60405180910390fd5b60018160030160006101000a81548160ff0219169083151502179055507f638d892b8630b775fea5d7a52b209e8bfa1d90c32b57cd37208ac84d4bcd6dcb8282600001546040516108e5929190611c6b565b60405180910390a15050565b60055481565b600047905090565b60008054906101000a900473ffffffffffffffffffffffffffffffffffffffff1673ffffffffffffffffffffffffffffffffffffffff163373ffffffffffffffffffffffffffffffffffffffff161461098d576040517f08c379a000000000000000000000000000000000000000000000000000000000815260040161098490611d06565b60405180910390fd5b600460008154809291906109a09061178f565b91905055506040518060e001604052808573ffffffffffffffffffffffffffffffffffffffff16815260200184815260200183815260200142815260200162015180836109ed9190611d92565b426109f89190611dd4565b81526020016001151581526020016000151581525060026000600454815260200190815260200160002060008201518160000160006101000a81548173ffffffffffffffffffffffffffffffffffffffff021916908373ffffffffffffffffffffffffffffffffffffffff1602179055506020820151816001015560408201518160020155606082015181600301556080820151816004015560a08201518160050160006101000a81548160ff02191690831515021790555060c08201518160050160016101000a81548160ff021916908315150217905550905050600160045490806001815401808255809150506001900390600052602060002001600090919091909150558373ffffffffffffffffffffffffffffffffffffffff167fd93ca75dcb6254718485f83c72225dcd37a74fd9a134ceed01946cf2e920b83d600454858585604051610b4d9493929190611e08565b60405180910390a250505050565b6003602052806000526040600020600091509050806000015490806001015490806002018054610b8a90611806565b80601f0160208091040260200160405190810160405280929190818152602001828054610bb690611806565b8015610c035780601f10610bd857610100808354040283529160200191610c03565b820191906000526020600020905b815481529060010190602001808311610be657829003601f168201915b5050505050908060030160009054906101000a900460ff16908060030160019054906101000a900460ff16905085565b60008054906101000a900473ffffffffffffffffffffffffffffffffffffffff1673ffffffffffffffffffffffffffffffffffffffff163373ffffffffffffffffffffffffffffffffffffffff1614610cc1576040517f08c379a0000000000000000000000000000000000000000000000000000000008152600401610cb890611d06565b60405180910390fd5b565b60026020528060005260406000206000915090508060000160009054906101000a900473ffffffffffffffffffffffffffffffffffffffff16908060010154908060020154908060030154908060040154908060050160009054906101000a900460ff16908060050160019054906101000a900460ff16905087565b60045481565b60008054906101000a900473ffffffffffffffffffffffffffffffffffffffff1673ffffffffffffffffffffffffffffffffffffffff163373ffffffffffffffffffffffffffffffffffffffff1614610dd3576040517f08c379a0000000000000000000000000000000000000000000000000000000008152600401610dca90611d06565b60405180910390fd5b60006003600083815260200190815260200160002090506000600260008360000154815260200190815260200160002090508160030160009054906101000a900460ff16610e56576040517f08c379a0000000000000000000000000000000000000000000000000000000008152600401610e4d90611e99565b60405180910390fd5b8160030160019054906101000a900460ff1615610ea8576040517f08c379a0000000000000000000000000000000000000000000000000000000008152600401610e9f90611f05565b60405180910390fd5b8160010154471015610eef576040517f08c379a0000000000000000000000000000000000000000000000000000000008152600401610ee690611f71565b60405180910390fd5b8060050160009054906101000a900460ff16610f40576040517f08c379a0000000000000000000000000000000000000000000000000000000008152600401610f3790611668565b60405180910390fd5b8060050160019054906101000a900460ff1615610f92576040517f08c379a0000000000000000000000000000000000000000000000000000000008152600401610f8990611fdd565b60405180910390fd5b60018260030160016101000a81548160ff02191690831515021790555060018160050160016101000a81548160ff0219169083151502179055508060000160009054906101000a900473ffffffffffffffffffffffffffffffffffffffff1673ffffffffffffffffffffffffffffffffffffffff166108fc83600101549081150290604051600060405180830381858888f1935050505015801561103a573d6000803e3d6000fd5b508060000160009054906101000a900473ffffffffffffffffffffffffffffffffffffffff1673ffffffffffffffffffffffffffffffffffffffff167fe126a82946b3a6f5969d735bc2da134b26667bbdb0818d872a70cd8aee56b0fc84846000015485600101546040516110b193929190611ffd565b60405180910390a2505050565b60008054906101000a900473ffffffffffffffffffffffffffffffffffffffff1681565b6000604051905090565b600080fd5b600080fd5b6000819050919050565b611109816110f6565b811461111457600080fd5b50565b60008135905061112681611100565b92915050565b600080fd5b600080fd5b6000601f19601f8301169050919050565b7f4e487b7100000000000000000000000000000000000000000000000000000000600052604160045260246000fd5b61117f82611136565b810181811067ffffffffffffffff8211171561119e5761119d611147565b5b80604052505050565b60006111b16110e2565b90506111bd8282611176565b919050565b600067ffffffffffffffff8211156111dd576111dc611147565b5b6111e682611136565b9050602081019050919050565b82818337600083830152505050565b6000611215611210846111c2565b6111a7565b90508281526020810184848401111561123157611230611131565b5b61123c8482856111f3565b509392505050565b600082601f8301126112595761125861112c565b5b8135611269848260208601611202565b91505092915050565b60008060006060848603121561128b5761128a6110ec565b5b600061129986828701611117565b93505060206112aa86828701611117565b925050604084013567ffffffffffffffff8111156112cb576112ca6110f1565b5b6112d786828701611244565b9150509250925092565b6000602082840312156112f7576112f66110ec565b5b600061130584828501611117565b91505092915050565b611317816110f6565b82525050565b6000602082019050611332600083018461130e565b92915050565b600073ffffffffffffffffffffffffffffffffffffffff82169050919050565b600061136382611338565b9050919050565b61137381611358565b811461137e57600080fd5b50565b6000813590506113908161136a565b92915050565b600080600080608085870312156113b0576113af6110ec565b5b60006113be87828801611381565b94505060206113cf87828801611117565b93505060406113e087828801611117565b92505060606113f187828801611117565b91505092959194509250565b600081519050919050565b600082825260208201905092915050565b60005b8381101561143757808201518184015260208101905061141c565b60008484015250505050565b600061144e826113fd565b6114588185611408565b9350611468818560208601611419565b61147181611136565b840191505092915050565b60008115159050919050565b6114918161147c565b82525050565b600060a0820190506114ac600083018861130e565b6114b9602083018761130e565b81810360408301526114cb8186611443565b90506114da6060830185611488565b6114e76080830184611488565b9695505050505050565b6114fa81611358565b82525050565b600060e082019050611515600083018a6114f1565b611522602083018961130e565b61152f604083018861130e565b61153c606083018761130e565b611549608083018661130e565b61155660a0830185611488565b61156360c0830184611488565b98975050505050505050565b600060208201905061158460008301846114f1565b92915050565b7f4f6e6c7920706f6c696379686f6c6465722063616e207375626d697420636c6160008201527f696d000000000000000000000000000000000000000000000000000000000000602082015250565b60006115e6602283611408565b91506115f18261158a565b604082019050919050565b60006020820190508181036000830152611615816115d9565b9050919050565b7f506f6c696379206973206e6f7420616374697665000000000000000000000000600082015250565b6000611652601483611408565b915061165d8261161c565b602082019050919050565b6000602082019050818103600083015261168181611645565b9050919050565b7f506f6c6963792065787069726564000000000000000000000000000000000000600082015250565b60006116be600e83611408565b91506116c982611688565b602082019050919050565b600060208201905081810360008301526116ed816116b1565b9050919050565b7f416c726561647920636c61696d656420666f72207468697320706f6c69637900600082015250565b600061172a601f83611408565b9150611735826116f4565b602082019050919050565b600060208201905081810360008301526117598161171d565b9050919050565b7f4e487b7100000000000000000000000000000000000000000000000000000000600052601160045260246000fd5b600061179a826110f6565b91507fffffffffffffffffffffffffffffffffffffffffffffffffffffffffffffffff82036117cc576117cb611760565b5b600182019050919050565b7f4e487b7100000000000000000000000000000000000000000000000000000000600052602260045260246000fd5b6000600282049050600182168061181e57607f821691505b602082108103611831576118306117d7565b5b50919050565b60008190508160005260206000209050919050565b60006020601f8301049050919050565b600082821b905092915050565b6000600883026118997fffffffffffffffffffffffffffffffffffffffffffffffffffffffffffffffff8261185c565b6118a3868361185c565b95508019841693508086168417925050509392505050565b6000819050919050565b60006118e06118db6118d6846110f6565b6118bb565b6110f6565b9050919050565b6000819050919050565b6118fa836118c5565b61190e611906826118e7565b848454611869565b825550505050565b600090565b611923611916565b61192e8184846118f1565b505050565b5b818110156119525761194760008261191b565b600181019050611934565b5050565b601f8211156119975761196881611837565b6119718461184c565b81016020851015611980578190505b61199461198c8561184c565b830182611933565b50505b505050565b600082821c905092915050565b60006119ba6000198460080261199c565b1980831691505092915050565b60006119d383836119a9565b9150826002028217905092915050565b6119ec826113fd565b67ffffffffffffffff811115611a0557611a04611147565b5b611a0f8254611806565b611a1a828285611956565b600060209050601f831160018114611a4d5760008415611a3b578287015190505b611a4585826119c7565b865550611aad565b601f198416611a5b86611837565b60005b82811015611a8357848901518255600182019150602085019450602081019050611a5e565b86831015611aa05784890151611a9c601f8916826119a9565b8355505b6001600288020188555050505b505050505050565b6000608082019050611aca600083018761130e565b611ad7602083018661130e565b611ae4604083018561130e565b8181036060830152611af68184611443565b905095945050505050565b7f4f6e6c7920706f6c696379686f6c6465722063616e20706179207072656d697560008201527f6d00000000000000000000000000000000000000000000000000000000000000602082015250565b6000611b5d602183611408565b9150611b6882611b01565b604082019050919050565b60006020820190508181036000830152611b8c81611b50565b9050919050565b7f506f6c6963792068617320657870697265640000000000000000000000000000600082015250565b6000611bc9601283611408565b9150611bd482611b93565b602082019050919050565b60006020820190508181036000830152611bf881611bbc565b9050919050565b7f496e636f7272656374207072656d69756d20616d6f756e740000000000000000600082015250565b6000611c35601883611408565b9150611c4082611bff565b602082019050919050565b60006020820190508181036000830152611c6481611c28565b9050919050565b6000604082019050611c80600083018561130e565b611c8d602083018461130e565b9392505050565b7f4f6e6c7920696e73757265722063616e20706572666f726d207468697320616360008201527f74696f6e00000000000000000000000000000000000000000000000000000000602082015250565b6000611cf0602483611408565b9150611cfb82611c94565b604082019050919050565b60006020820190508181036000830152611d1f81611ce3565b9050919050565b7f436c61696d20616c726561647920617070726f76656400000000000000000000600082015250565b6000611d5c601683611408565b9150611d6782611d26565b602082019050919050565b60006020820190508181036000830152611d8b81611d4f565b9050919050565b6000611d9d826110f6565b9150611da8836110f6565b9250828202611db6816110f6565b91508282048414831517611dcd57611dcc611760565b5b5092915050565b6000611ddf826110f6565b9150611dea836110f6565b9250828201905080821115611e0257611e01611760565b5b92915050565b6000608082019050611e1d600083018761130e565b611e2a602083018661130e565b611e37604083018561130e565b611e44606083018461130e565b95945050505050565b7f436c61696d206e6f7420617070726f7665640000000000000000000000000000600082015250565b6000611e83601283611408565b9150611e8e82611e4d565b602082019050919050565b60006020820190508181036000830152611eb281611e76565b9050919050565b7f436c61696d20616c726561647920706169640000000000000000000000000000600082015250565b6000611eef601283611408565b9150611efa82611eb9565b602082019050919050565b60006020820190508181036000830152611f1e81611ee2565b9050919050565b7f496e73756666696369656e7420636f6e74726163742062616c616e6365000000600082015250565b6000611f5b601d83611408565b9150611f6682611f25565b602082019050919050565b60006020820190508181036000830152611f8a81611f4e565b9050919050565b7f506f6c69637920636c61696d20616c7265616479207061696400000000000000600082015250565b6000611fc7601983611408565b9150611fd282611f91565b602082019050919050565b60006020820190508181036000830152611ff681611fba565b9050919050565b6000606082019050612012600083018661130e565b61201f602083018561130e565b61202c604083018461130e565b94935050505056fea2646970667358221220b5b8694aa204ccdc2c2e5001037e04b31fd28eba37b93a753bdbbcedbd0b1a7364736f6c63430008140033",
  "linkReferences": {},
  "deployedLinkReferences": {}
}